:0400000051EF00F0CC
:100008005B82FACF01F0FBCF02F0D9CF03F0DACF51
:1000180004F09DA812EF00F014EF00F02BEF00F0B1
:100028009EA819EF00F01BEF00F02BEF00F002D8AC
:1000380029EF00F005000001FA6E8651FD6E875128
:10004800FE6EF850FF6EFA50120047EF00F09DAABE
:1000580030EF00F032EF00F047EF00F09EAA37EFE4
:1000680000F039EF00F047EF00F002D847EF00F05A
:1000780005000001FA6E8451FD6E8551FE6EF85040
:10008800FF6EFA50120004C0DAFF03C0D9FF02C0A5
:0E009800FBFF01C0FAFF5B9211003CEF0BF082
:10080000000000CE140000000042171E124C17001A
:1008100000B815F6135265636569766520746573D3
:10082000743A20547970652061206D657373616737
:1008300065207468656E20707265737320656E74D0
:10084000657220286D61782031362063686172738B
:10085000293A0048656C6C6F20576F726C642120D8
:1008600025640A005472616E736D69742074657337
:10087000740A00636F756E7465723A2025640D0A00
:1008800000596F752074797065643A20000A6F6BA7
:050890000025630000DB
:1008960024C03CF025C03DF026C03EF027C03FF006
:1008A60028C040F029C041F02AC042F02BC043F0D6
:1008B60043BE60EF04F063EF04F0010E64EF04F052
:1008C600000E3A6E3B6A3A503B10D8B46DEF04F016
:1008D6006FEF04F07FEF04F0431E421E411E401EE0
:1008E6003F1E3E1E3D1E3C6C000E3D223E223F2218
:1008F600402241224222432200017DBF85EF04F0BF
:1009060087EF04F088EF04F057927DBF95EF04F06F
:100916007D5106E17C05D8B093EF04F095EF04F025
:100926009BEF04F0000E376E010E366E9FEF04F05B
:100936007CC036F07DC037F07AC038F07BC039F025
:100946003A503B10D8A4AAEF04F0ACEF04F0B3EF92
:1009560004F057A4B1EF04F0B3EF04F0B6EF04F0DF
:100966003806D8A03906000E456E1F0E446E000EDE
:10097600AC6F3AEF05F04406D8A045068D0E442428
:10098600D96E000E4520DA6E3CC005F03DC006F07B
:100996003EC007F03FC008F040C009F041C00AF071
:1009A60042C00BF043C00CF00A0E0D6E000E0E6E28
:1009B600000E0F6E000E106E000E116E000E126EFF
:1009C600000E136E000E146E91EC07F005C02CF0AD
:1009D60006C02DF007C02EF008C02FF009C030F079
:1009E6000AC031F00BC032F00CC033F02CC017F047
:1009F6002EC018F0FDEC0AF01750300FDF6E3606E9
:100A0600D8A037063806D8A039063CC005F03DC048
:100A160006F03EC007F03FC008F040C009F041C0F4
:100A26000AF042C00BF043C00CF00A0E0D6E000E29
:100A36000E6E000E0F6E000E106E000E116E000E82
:100A4600126E000E136E000E146ECDEC06F005C08D
:100A56003CF006C03DF007C03EF008C03FF009C0BC
:100A660040F00AC041F00BC042F00CC043F045BE56
:100A760045EF05F0455008E14404D8A045EF05F0E0
:100A860047EF05F077EF05F03C503D103E103F1064
:100A96004010411042104310D8A454EF05F056EF11
:100AA60005F0BEEF04F037BE63EF05F0375006E100
:100AB6003604D8B061EF05F063EF05F0BEEF04F041
:100AC60039BE6EEF05F0395008E13804D8A06EEF54
:100AD60005F070EF05F077EF05F057B275EF05F00A
:100AE60077EF05F0BEEF04F03A503B10D8A47EEF46
:100AF60005F080EF05F087EF05F057A485EF05F0C8
:100B060087EF05F0A5EF05F04406D8A045063A5054
:100B16003B10D8A491EF05F093EF05F099EF05F09F
:100B2600000E356E2B0E346E9DEF05F0000E356E01
:100B36002D0E346E8D0E4424D96E000E4520DA6ECD
:100B460034C0DFFF22C017F023C018F08D0E4424F6
:100B5600196E000E45201A6E38C01BF039C01CF005
:100B6600AEEC08F017C022F018C023F0120048C0FF
:100B7600D9FF49C0DAFFDECFF6FFDDCFF7FF080069
:100B8600F550250AD8A4CAEF05F0CCEF05F0B1EF71
:100B960006F048C0D9FF49C0DAFFDE2A000EDD2282
:100BA600000E00017B6F000E7A6F7AC057F07BC093
:100BB60058F07C697D6948C0D9FF49C0DAFFDECFAD
:100BC600F6FFDDCFF7FF0800F550630AD8A4EEEF75
:100BD60005F0F0EF05F017EF06F048C0D9FF49C061
:100BE600DAFFDE2A000EDD224AC0D9FF4BC0DAFF4B
:100BF600DFCF4CF0020EDE26DFCF4DF0000EDD22F9
:100C06004CC0D9FF4DC0DAFFDF50566E46C010F01B
:100C160047C011F056C012F043EC08F010C046F081
:100C260011C047F0CCEF06F048C0D9FF49C0DAFF43
:100C3600DECFF6FFDDCFF7FF0800F550640AD8B423
:100C460027EF06F029EF06F03BEF06F048C0D9FF84
:100C560049C0DAFFDECFF6FFDDCFF7FF0800F5501B
:100C6600690AD8A439EF06F03BEF06F07BEF06F0F1
:100C760048C0D9FF49C0DAFFDE2A000EDD224AC08D
:100C8600D9FF4BC0DAFFDFCF4CF0020EDE26DFCFF6
:100C96004DF0000EDD224CC0D9FF4DC0DAFFDECF8D
:100CA6004EF0DDCF4FF0000E4FBEFF0E506E516E70
:100CB600526E536E546E556E46C022F047C023F0F6
:100CC6004EC024F04FC025F050C026F051C027F08A
:100CD60052C028F053C029F054C02AF055C02BF05A
:100CE6004BEC04F022C046F023C047F0CCEF06F0F0
:100CF60048C0D9FF49C0DAFFDECFF6FFDDCFF7FFE8
:100D06000800F550250AD8A48BEF06F08DEF06F003
:100D1600A4EF06F048C0D9FF49C0DAFFDE2A000E6C
:100D2600DD22000E086E250E076E46C009F047C08C
:100D36000AF070EC09F0000E476E010E466ECCEF1D
:100D460006F048C0D9FF49C0DAFFDE2A000EDD22D0
:100D5600000E476E000E466ECCEF06F048C0D9FF77
:100D660049C0DAFFDECFF6FFDDCFF7FF0800F5500A
:100D7600076E086A46C009F047C00AF070EC09F031
:100D860048C0D9FF49C0DAFFDE2A000EDD229EEFF9
:100D960006F01200000E166E14BED6EF06F0D4EF63
:100DA60006F0E8EF06F0141E131E121E111E101E8A
:100DB6000F1E0E1E0D6C000E0E220F221022112287
:100DC600122213221422010E166E0CBEEFEF06F04D
:100DD600EDEF06F001EF07F00C1E0B1E0A1E091EB2
:100DE600081E071E061E056C000E06220722082294
:100DF60009220A220B220C22010E161A20EE17F0E7
:100E0600070EDE6AE806FDE20D500E100F101010F8
:100E16001110121013101410D8B414EF07F016EFB7
:100E260007F068EF07F0010E156E24EF07F0D89073
:100E36000D360E360F361036113612361336143678
:100E4600152A14AE29EF07F02BEF07F01AEF07F07B
:100E5600D8901736183619361A361B361C361D36F4
:100E66001E360D50055C0E5006580F500758105090
:100E760008581150095812500A5813500B5814505C
:100E86000C58D8A049EF07F04BEF07F05CEF07F0DE
:100E96000D50055E0E50065A0F50075A1050085A4C
:100EA6001150095A12500A5A13500B5A14500C5A20
:100EB6001780D890143213321232113210320F3298
:100EC6000E320D32152E2BEF07F01650D8B46EEFFA
:100ED60007F070EF07F080EF07F01E1E1D1E1C1EA8
:100EE6001B1E1A1E191E181E176C000E1822192218
:100EF6001A221B221C221D221E2217C005F018C012
:100F060006F019C007F01AC008F01BC009F01CC093
:100F16000AF01DC00BF01EC00CF01200000E166E7B
:100F26000CBE9AEF07F098EF07F0ACEF07F00C1E37
:100F36000B1E0A1E091E081E071E061E056C000E45
:100F460006220722082209220A220B220C22010E5F
:100F5600166E14BEB3EF07F0B1EF07F0C3EF07F05C
:100F6600141E131E121E111E101E0F1E0E1E0D6CB9
:100F7600000E0E220F2210221122122213221422F8
:100F86000D500E100F101010111012101310141017
:100F9600D8B4D0EF07F0D2EF07F01AEF08F0010E41
:100FA600156EE0EF07F0D8900D360E360F36103678
:100FB6001136123613361436152A14AEE5EF07F03D
:100FC600E7EF07F0D6EF07F00D50055C0E50065818
:100FD6000F500758105008581150095812500A5807
:100FE60013500B5814500C58D8A0FCEF07F0FEEF26
:100FF60007F00EEF08F00D50055E0E50065A0F5022
:10100600075A1050085A1150095A12500A5A1350CA
:101016000B5A14500C5AD890143213321232113221
:1010260010320F320E320D32152EE7EF07F0165042
:10103600D8B420EF08F022EF08F032EF08F00C1ECB
:101046000B1E0A1E091E081E071E061E056C000E34
:1010560006220722082209220A220B220C2205C098
:1010660005F006C006F007C007F008C008F009C082
:1010760009F00AC00AF00BC00BF00CC00CF012000D
:1010860000017A517B11D8A44BEF08F04DEF08F020
:1010960053EF08F07AC016F07BC017F059EF08F04E
:1010A600FF0E7A25166EFF0E7B21176E57A05EEF98
:1010B60008F060EF08F069EF08F012C007F0086A60
:1010C60010C009F011C00AF070EC09F017BE6EEFFF
:1010D60008F070EF08F072EF08F076EF08F0000EF7
:1010E600176E000E166E000E156E000E146E88EF4B
:1010F60008F0000E086E200E076E10C009F011C031
:101106000AF070EC09F0144A152A1650145C1550B2
:10111600800A136E1750800A1358D8A095EF08F06E
:1011260097EF08F07CEF08F057B09CEF08F09EEFC1
:1011360008F0A7EF08F012C007F0086A10C009F01F
:1011460011C00AF070EC09F0010E1424106E000EA6
:101156001520116E120057A0B3EF08F0B5EF08F096
:10116600BFEF08F019C010F01AC011F017C012F046
:1011760018C013F0BAEC0AF01CBEC4EF08F0C6EFB4
:1011860008F0CCEF08F01BC020F01CC021F0D0EF17
:1011960008F0000E216E000E206E000E1F6E000E6F
:1011A6001E6EE2EF08F0000E086E200E076E17C0E6
:1011B60009F018C00AF070EC09F01E4A1F2A2050E8
:1011C6001E5C1F50800A1D6E2150800A1D58D8A033
:1011D600EFEF08F0F1EF08F0D6EF08F057B0F6EFB2
:1011E60008F0F8EF08F002EF09F019C010F01AC085
:1011F60011F017C012F018C013F0BAEC0AF019C0BB
:1012060005F01AC006F093EC0AF020500524176E7C
:1012160021500620186E1200600E5A24D96EDA6A22
:10122600000EDA22000EDF6EABA41CEF09F01EEFF3
:1012360009F033EF09F0600E5A24D96EDA6A000E0F
:10124600DA220001DF8202D833EF09F00500FA6ED8
:101256008251FD6E8351FE6EF850FF6EFA501200F9
:10126600ABA238EF09F03AEF09F04FEF09F0600E44
:101276005A24D96EDA6A000EDA220001DF8402D817
:101286004FEF09F00500FA6E8051FD6E8151FE6E3A
:10129600F850FF6EFA501200600E5A24D96EDA6AC0
:1012A600000EDA22DF50D8B45BEF09F05DEF09F0EB
:1012B6006DEF09F002D86BEF09F005000001FA6E38
:1012C6007E51FD6E7F51FE6EF850FF6EFA50120091
:1012D6006FEF09F059EC0BF0120009500A10D8B460
:1012E60077EF09F079EF09F082EF09F009500A105B
:1012F600D8A480EF09F082EF09F087EF09F00750D4
:101306009CEC0BF0BAEF09F020EE09F00950D92653
:101316000A50DA22DE50DE10D8B494EF09F096EFC8
:1013260009F0B1EF09F020EE09F00950D9260A506C
:10133600DA2210EE03F00950E1260A50E222DE50CE
:10134600E65CE650800A0F6EDE50800A0F58D8B071
:10135600AFEF09F0B1EF09F0BAEF09F020EE03F0B4
:101366000950D9260A50DA22DE2A000EDD221200A2
:1013760093EC0BF0F28EF28C000E0001CE6F000E95
:10138600CD6F000E956E000E0F015E6F070E000109
:10139600CC6F170ECB6F6A0EE82EFED7CB2FFCD77D
:1013A600CC2FFAD700F08CACDBEF09F0E0EF09F0B8
:1013B6000001CB6BCB2BE2EF09F00001CB6BCB3BF3
:1013C600CB47CB478C50CB19BF0BCB198C6E730E0A
:1013D600C56F080EC66FCDC0C7F0CEC0C8F06FECA3
:1013E6000BF00001CD4BCE2BC9EF09F051EF00F009
:1013F6009D9A1E0E056E120E066EA6EC0BF09D98BB
:10140600B80E056E150E066EA1EC0BF0080EB86E42
:10141600900EAB6E240EAC6EE10EAF6E040EB06E87
:101426008A0E056E170E066EB0EC0BF07C0E056E7E
:10143600170E066EABEC0BF0820E056E170E066EDF
:10144600B5EC0BF0000E0001886F000E8C6F000EDD
:101456008B6F080E8A6F000E5A6E000E596E000EC4
:10146600896F9D8A1200BFC0C3F0C0C0C4F0000ED1
:101476000001796F000E786F54EF0AF0BDC046F098
:10148600BEC047F0C30E486E000E496EC1C04AF09A
:10149600C2C04BF0BAEC05F0465000017827475021
:1014A6007923C3C0F6FFC4C0F7FF0800F550000952
:1014B600D8A460EF0AF062EF0AF041EF0AF078C0B4
:1014C600BDF079C0BEF01200056E00018A51D8B495
:1014D6006FEF0AF071EF0AF068EF0AF09DB876EF49
:1014E6000AF078EF0AF07CEF0AF005C0ADFF91EF45
:1014F6000AF09D98700E8C25D96EDA6A000EDA22F3
:1015060005C0DFFF8C2B070E8C658CEF0AF08EEF83
:101516000AF090EF0AF0000E8C6F8A079D88120081
:1015260005C007F006C008F09BEF0AF0054A062A38
:1015360005C0F6FF06C0F7FFF86A070EF76403D08A
:101546000800F55005D0F6CFE9FFF7CFEAFFEF50D8
:101556000009D8A4B1EF0AF0B3EF0AF099EF0AF048
:101566000750055C056E08500658066E1200000E00
:10157600166E000E156ECBEF0AF014C007F0086A5F
:1015860012C009F013C00AF070EC09F0154A162AC9
:1015960015501024D96E16501120DA6EDF50146ED5
:1015A6001450D8A4D9EF0AF0DBEF0AF0C0EF0AF026
:1015B6001200080E00018A61E3EF0AF0E5EF0AF077
:1015C600FBEF0AF0700E8B25D96EDA6A000EDA226E
:1015D600DF50AD6E8B2B070E8B65F4EF0AF0F6EF3E
:1015E6000AF0F8EF0AF0000E8B6F8A2BFCEF0AF078
:1015F6009D98120018BE0AEF0BF0185006E117046A
:10160600D8B008EF0BF00AEF0BF018EF0BF017C08D
:1016160019F018C01AF0191E1A1E194A1A2A19C0EA
:1016260017F01AC018F01CEF0BF017C017F018C00F
:1016360018F01200000E8D6E000E8C6E000E896E74
:10164600000E8A6E000E8B6E070E966E9268936879
:10165600870E946E95680F015E69040E5D6F3F0EEE
:101666005C6F070E5F6F2F0E5B6F000E856EF18E3F
:101676001200880EF66E170EF76E000EF86E090051
:10168600F5CFCFF00900F5CFD0F000EE60F05D0E9B
:10169600EE6AE806FDE15A6A596A586A576A5B902B
:1016A6005B92000EF86E0001BBEF09F0680E5A243B
:1016B600D96EDA6A000EDA22AECFDFFF5A2A070E9B
:1016C6005A6468EF0BF06AEF0BF06CEF0BF0000E4C
:1016D6005A6E0001892B1200C70E0001C96F000E59
:1016E600CA6F000EBD6F000EBE6FC5C0BFF0C6C08C
:1016F600C0F0C90EC16F000EC26F36EC0AF01200C0
:10170600700ED36E000ED26E800E9B6E000EB56EFE
:10171600D2AE90EF0BF092EF0BF08BEF0BF01200C6
:10172600BAEC0BF01DEC0BF083EC0BF0FBEC09F0C4
:101736001200066E065067EC0AF0120005C086F02D
:1017460006C087F0120005C084F006C085F01200BE
:1017560005C080F006C081F0120005C082F006C008
:1017660083F0120005C07EF006C07FF01200D08E16
:101776009F889F8A1200AB98AB88120059EC0BF039
:06178600120064081200CD
:020000040020DA
:08000000FFFFFFFFFFFFFFFF00
:020000040030CA
:0E00000003285F3CFFD381FF0FC00FE00F40CD
:00000001FF
